{
  "contractName": "Election",
  "abi": [
    {
      "anonymous": false,
      "inputs": [
        {
          "indexed": true,
          "internalType": "uint256",
          "name": "_candidateId",
          "type": "uint256"
        }
      ],
      "name": "personEvent",
      "type": "event"
    },
    {
      "anonymous": false,
      "inputs": [
        {
          "indexed": true,
          "internalType": "uint256",
          "name": "_candidateId",
          "type": "uint256"
        }
      ],
      "name": "votedEvent",
      "type": "event"
    },
    {
      "constant": true,
      "inputs": [
        {
          "internalType": "address",
          "name": "",
          "type": "address"
        }
      ],
      "name": "Inscrits",
      "outputs": [
        {
          "internalType": "bool",
          "name": "",
          "type": "bool"
        }
      ],
      "payable": false,
      "stateMutability": "view",
      "type": "function"
    },
    {
      "constant": true,
      "inputs": [
        {
          "internalType": "uint256",
          "name": "",
          "type": "uint256"
        }
      ],
      "name": "candidates",
      "outputs": [
        {
          "internalType": "uint256",
          "name": "id",
          "type": "uint256"
        },
        {
          "internalType": "string",
          "name": "name",
          "type": "string"
        },
        {
          "internalType": "string",
          "name": "descriptif",
          "type": "string"
        },
        {
          "internalType": "uint256",
          "name": "voteCountPour",
          "type": "uint256"
        },
        {
          "internalType": "uint256",
          "name": "voteCountContre",
          "type": "uint256"
        }
      ],
      "payable": false,
      "stateMutability": "view",
      "type": "function"
    },
    {
      "constant": true,
      "inputs": [],
      "name": "candidatesCount",
      "outputs": [
        {
          "internalType": "uint256",
          "name": "",
          "type": "uint256"
        }
      ],
      "payable": false,
      "stateMutability": "view",
      "type": "function"
    },
    {
      "constant": true,
      "inputs": [
        {
          "internalType": "uint256",
          "name": "",
          "type": "uint256"
        },
        {
          "internalType": "uint256",
          "name": "",
          "type": "uint256"
        }
      ],
      "name": "deCisioncontre",
      "outputs": [
        {
          "internalType": "uint256",
          "name": "",
          "type": "uint256"
        }
      ],
      "payable": false,
      "stateMutability": "view",
      "type": "function"
    },
    {
      "constant": true,
      "inputs": [
        {
          "internalType": "uint256",
          "name": "",
          "type": "uint256"
        },
        {
          "internalType": "uint256",
          "name": "",
          "type": "uint256"
        }
      ],
      "name": "deCisionpour",
      "outputs": [
        {
          "internalType": "uint256",
          "name": "",
          "type": "uint256"
        }
      ],
      "payable": false,
      "stateMutability": "view",
      "type": "function"
    },
    {
      "constant": true,
      "inputs": [],
      "name": "personCount",
      "outputs": [
        {
          "internalType": "uint256",
          "name": "",
          "type": "uint256"
        }
      ],
      "payable": false,
      "stateMutability": "view",
      "type": "function"
    },
    {
      "constant": true,
      "inputs": [
        {
          "internalType": "uint256",
          "name": "",
          "type": "uint256"
        }
      ],
      "name": "personnes",
      "outputs": [
        {
          "internalType": "uint256",
          "name": "id",
          "type": "uint256"
        },
        {
          "internalType": "string",
          "name": "nom",
          "type": "string"
        },
        {
          "internalType": "string",
          "name": "prenom",
          "type": "string"
        },
        {
          "internalType": "string",
          "name": "sexe",
          "type": "string"
        },
        {
          "internalType": "string",
          "name": "fonction",
          "type": "string"
        }
      ],
      "payable": false,
      "stateMutability": "view",
      "type": "function"
    },
    {
      "constant": true,
      "inputs": [
        {
          "internalType": "uint256",
          "name": "",
          "type": "uint256"
        }
      ],
      "name": "tabIdCandidat",
      "outputs": [
        {
          "internalType": "uint256",
          "name": "",
          "type": "uint256"
        }
      ],
      "payable": false,
      "stateMutability": "view",
      "type": "function"
    },
    {
      "constant": true,
      "inputs": [
        {
          "internalType": "uint256",
          "name": "",
          "type": "uint256"
        }
      ],
      "name": "tabIdCandidatContre",
      "outputs": [
        {
          "internalType": "uint256",
          "name": "",
          "type": "uint256"
        }
      ],
      "payable": false,
      "stateMutability": "view",
      "type": "function"
    },
    {
      "constant": true,
      "inputs": [
        {
          "internalType": "address",
          "name": "",
          "type": "address"
        },
        {
          "internalType": "uint256",
          "name": "",
          "type": "uint256"
        }
      ],
      "name": "votedContre",
      "outputs": [
        {
          "internalType": "bool",
          "name": "",
          "type": "bool"
        }
      ],
      "payable": false,
      "stateMutability": "view",
      "type": "function"
    },
    {
      "constant": true,
      "inputs": [
        {
          "internalType": "address",
          "name": "",
          "type": "address"
        },
        {
          "internalType": "uint256",
          "name": "",
          "type": "uint256"
        }
      ],
      "name": "votedPour",
      "outputs": [
        {
          "internalType": "bool",
          "name": "",
          "type": "bool"
        }
      ],
      "payable": false,
      "stateMutability": "view",
      "type": "function"
    },
    {
      "constant": true,
      "inputs": [
        {
          "internalType": "address",
          "name": "",
          "type": "address"
        },
        {
          "internalType": "uint256",
          "name": "",
          "type": "uint256"
        }
      ],
      "name": "voterFor",
      "outputs": [
        {
          "internalType": "uint256",
          "name": "",
          "type": "uint256"
        }
      ],
      "payable": false,
      "stateMutability": "view",
      "type": "function"
    },
    {
      "constant": true,
      "inputs": [
        {
          "internalType": "address",
          "name": "",
          "type": "address"
        }
      ],
      "name": "voters",
      "outputs": [
        {
          "internalType": "bool",
          "name": "",
          "type": "bool"
        }
      ],
      "payable": false,
      "stateMutability": "view",
      "type": "function"
    },
    {
      "constant": true,
      "inputs": [
        {
          "internalType": "uint256",
          "name": "inte",
          "type": "uint256"
        }
      ],
      "name": "getdeCisionpour",
      "outputs": [
        {
          "internalType": "uint256[]",
          "name": "",
          "type": "uint256[]"
        }
      ],
      "payable": false,
      "stateMutability": "view",
      "type": "function"
    },
    {
      "constant": true,
      "inputs": [
        {
          "internalType": "uint256",
          "name": "inte",
          "type": "uint256"
        }
      ],
      "name": "getdeCisioncontre",
      "outputs": [
        {
          "internalType": "uint256[]",
          "name": "",
          "type": "uint256[]"
        }
      ],
      "payable": false,
      "stateMutability": "view",
      "type": "function"
    },
    {
      "constant": false,
      "inputs": [],
      "name": "getCandidatesCount",
      "outputs": [
        {
          "internalType": "uint256",
          "name": "",
          "type": "uint256"
        }
      ],
      "payable": false,
      "stateMutability": "nonpayable",
      "type": "function"
    },
    {
      "constant": false,
      "inputs": [],
      "name": "InitializeTableau",
      "outputs": [],
      "payable": false,
      "stateMutability": "nonpayable",
      "type": "function"
    },
    {
      "constant": false,
      "inputs": [],
      "name": "getPersonCount",
      "outputs": [
        {
          "internalType": "uint256",
          "name": "",
          "type": "uint256"
        }
      ],
      "payable": false,
      "stateMutability": "nonpayable",
      "type": "function"
    },
    {
      "constant": false,
      "inputs": [
        {
          "internalType": "string",
          "name": "_nom",
          "type": "string"
        },
        {
          "internalType": "string",
          "name": "_prenom",
          "type": "string"
        },
        {
          "internalType": "string",
          "name": "_sexe",
          "type": "string"
        },
        {
          "internalType": "string",
          "name": "_fonction",
          "type": "string"
        }
      ],
      "name": "addPerson",
      "outputs": [
        {
          "internalType": "uint256",
          "name": "",
          "type": "uint256"
        }
      ],
      "payable": false,
      "stateMutability": "nonpayable",
      "type": "function"
    },
    {
      "constant": false,
      "inputs": [
        {
          "internalType": "string",
          "name": "_name",
          "type": "string"
        },
        {
          "internalType": "string",
          "name": "_descriptif",
          "type": "string"
        }
      ],
      "name": "addCandidate",
      "outputs": [],
      "payable": false,
      "stateMutability": "nonpayable",
      "type": "function"
    },
    {
      "constant": true,
      "inputs": [
        {
          "internalType": "uint256",
          "name": "_id",
          "type": "uint256"
        }
      ],
      "name": "getVoters",
      "outputs": [
        {
          "internalType": "address[]",
          "name": "",
          "type": "address[]"
        }
      ],
      "payable": false,
      "stateMutability": "view",
      "type": "function"
    },
    {
      "constant": false,
      "inputs": [
        {
          "internalType": "uint256",
          "name": "_candidateId",
          "type": "uint256"
        }
      ],
      "name": "votePour",
      "outputs": [],
      "payable": false,
      "stateMutability": "nonpayable",
      "type": "function"
    },
    {
      "constant": false,
      "inputs": [
        {
          "internalType": "uint256",
          "name": "_candidateId",
          "type": "uint256"
        }
      ],
      "name": "voteContre",
      "outputs": [],
      "payable": false,
      "stateMutability": "nonpayable",
      "type": "function"
    }
  ],
  "bytecode": "0x608060405234801561001057600080fd5b50611f3d806100206000396000f3fe608060405234801561001057600080fd5b506004361061014d5760003560e01c80636bf1ae75116100c3578063ab512b151161007c578063ab512b1514610c26578063b016d64c14610c30578063b720fd7314610c8c578063bb9aa28f14610cd8578063c782dedf14610cf6578063ee9493b914610d795761014d565b80636bf1ae75146109f857806378495bf814610a7b5780637b5fef1814610a9957806386b646f214610afb578063a192e2df14610b7e578063a3ec138d14610bca5761014d565b806326541b561161011557806326541b56146102745780632d35a8a2146103c65780633477ee2e146103e45780633c9811151461050c5780634b0d26901461057257806360a8940e146107645761014d565b8063053094ce146101525780630fb628081461019457806312ed929c146101c2578063163f8f5f146102285780631ed52ed814610256575b600080fd5b61017e6004803603602081101561016857600080fd5b8101908080359060200190929190505050610dbb565b6040518082815260200191505060405180910390f35b6101c0600480360360208110156101aa57600080fd5b8101908080359060200190929190505050610ddc565b005b61020e600480360360408110156101d857600080fd5b81019080803573ffffffffffffffffffffffffffffffffffffffff169060200190929190803590602001909291905050506110a2565b604051808215151515815260200191505060405180910390f35b6102546004803603602081101561023e57600080fd5b81019080803590602001909291905050506110d1565b005b61025e611477565b6040518082815260200191505060405180910390f35b6103c46004803603604081101561028a57600080fd5b81019080803590602001906401000000008111156102a757600080fd5b8201836020820111156102b957600080fd5b803590602001918460018302840111640100000000831117156102db57600080fd5b91908080601f016020809104026020016040519081016040528093929190818152602001838380828437600081840152601f19601f8201169050808301925050505050505091929192908035906020019064010000000081111561033e57600080fd5b82018360208201111561035057600080fd5b8035906020019184600183028401116401000000008311171561037257600080fd5b91908080601f016020809104026020016040519081016040528093929190818152602001838380828437600081840152601f19601f820116905080830192505050505050509192919290505050611481565b005b6103ce611532565b6040518082815260200191505060405180910390f35b610410600480360360208110156103fa57600080fd5b8101908080359060200190929190505050611538565b604051808681526020018060200180602001858152602001848152602001838103835287818151815260200191508051906020019080838360005b8381101561046657808201518184015260208101905061044b565b50505050905090810190601f1680156104935780820380516001836020036101000a031916815260200191505b50838103825286818151815260200191508051906020019080838360005b838110156104cc5780820151818401526020810190506104b1565b50505050905090810190601f1680156104f95780820380516001836020036101000a031916815260200191505b5097505050505050505060405180910390f35b6105586004803603604081101561052257600080fd5b81019080803573ffffffffffffffffffffffffffffffffffffffff1690602001909291908035906020019092919050505061169e565b604051808215151515815260200191505060405180910390f35b61059e6004803603602081101561058857600080fd5b81019080803590602001909291905050506116cd565b6040518086815260200180602001806020018060200180602001858103855289818151815260200191508051906020019080838360005b838110156105f05780820151818401526020810190506105d5565b50505050905090810190601f16801561061d5780820380516001836020036101000a031916815260200191505b50858103845288818151815260200191508051906020019080838360005b8381101561065657808201518184015260208101905061063b565b50505050905090810190601f1680156106835780820380516001836020036101000a031916815260200191505b50858103835287818151815260200191508051906020019080838360005b838110156106bc5780820151818401526020810190506106a1565b50505050905090810190601f1680156106e95780820380516001836020036101000a031916815260200191505b50858103825286818151815260200191508051906020019080838360005b83811015610722578082015181840152602081019050610707565b50505050905090810190601f16801561074f5780820380516001836020036101000a031916815260200191505b50995050505050505050505060405180910390f35b6109e26004803603608081101561077a57600080fd5b810190808035906020019064010000000081111561079757600080fd5b8201836020820111156107a957600080fd5b803590602001918460018302840111640100000000831117156107cb57600080fd5b91908080601f016020809104026020016040519081016040528093929190818152602001838380828437600081840152601f19601f8201169050808301925050505050505091929192908035906020019064010000000081111561082e57600080fd5b82018360208201111561084057600080fd5b8035906020019184600183028401116401000000008311171561086257600080fd5b91908080601f016020809104026020016040519081016040528093929190818152602001838380828437600081840152601f19601f820116905080830192505050505050509192919290803590602001906401000000008111156108c557600080fd5b8201836020820111156108d757600080fd5b803590602001918460018302840111640100000000831117156108f957600080fd5b91908080601f016020809104026020016040519081016040528093929190818152602001838380828437600081840152601f19601f8201169050808301925050505050505091929192908035906020019064010000000081111561095c57600080fd5b82018360208201111561096e57600080fd5b8035906020019184600183028401116401000000008311171561099057600080fd5b91908080601f016020809104026020016040519081016040528093929190818152602001838380828437600081840152601f19601f820116905080830192505050505050509192919290505050611963565b6040518082815260200191505060405180910390f35b610a2460048036036020811015610a0e57600080fd5b8101908080359060200190929190505050611b4b565b6040518080602001828103825283818151815260200191508051906020019060200280838360005b83811015610a67578082015181840152602081019050610a4c565b505050509050019250505060405180910390f35b610a83611bb5565b6040518082815260200191505060405180910390f35b610ae560048036036040811015610aaf57600080fd5b81019080803573ffffffffffffffffffffffffffffffffffffffff16906020019092919080359060200190929190505050611bbb565b6040518082815260200191505060405180910390f35b610b2760048036036020811015610b1157600080fd5b8101908080359060200190929190505050611be9565b6040518080602001828103825283818151815260200191508051906020019060200280838360005b83811015610b6a578082015181840152602081019050610b4f565b505050509050019250505060405180910390f35b610bb460048036036040811015610b9457600080fd5b810190808035906020019092919080359060200190929190505050611c8a565b6040518082815260200191505060405180910390f35b610c0c60048036036020811015610be057600080fd5b81019080803573ffffffffffffffffffffffffffffffffffffffff169060200190929190505050611cb8565b604051808215151515815260200191505060405180910390f35b610c2e611cd8565b005b610c7260048036036020811015610c4657600080fd5b81019080803573ffffffffffffffffffffffffffffffffffffffff169060200190929190505050611ce8565b604051808215151515815260200191505060405180910390f35b610cc260048036036040811015610ca257600080fd5b810190808035906020019092919080359060200190929190505050611d08565b6040518082815260200191505060405180910390f35b610ce0611d36565b6040518082815260200191505060405180910390f35b610d2260048036036020811015610d0c57600080fd5b8101908080359060200190929190505050611d40565b6040518080602001828103825283818151815260200191508051906020019060200280838360005b83811015610d65578082015181840152602081019050610d4a565b505050509050019250505060405180910390f35b610da560048036036020811015610d8f57600080fd5b8101908080359060200190929190505050611dab565b6040518082815260200191505060405180910390f35b600c8181548110610dc857fe5b906000526020600020016000915090505481565b600a60003373ffffffffffffffffffffffffffffffffffffffff1673ffffffffffffffffffffffffffffffffffffffff168152602001908152602001600020600082815260200190815260200160002060009054906101000a900460ff1615610e90576040517f08c379a0000000000000000000000000000000000000000000000000000000008152600401808060200182810382526024815260200180611ee56024913960400191505060405180910390fd5b600b60003373ffffffffffffffffffffffffffffffffffffffff1673ffffffffffffffffffffffffffffffffffffffff168152602001908152602001600020600082815260200190815260200160002060009054906101000a900460ff1615610f44576040517f08c379a0000000000000000000000000000000000000000000000000000000008152600401808060200182810382526024815260200180611ee56024913960400191505060405180910390fd5b600081118015610f5657506008548111155b610f5f57600080fd5b6001600660003373ffffffffffffffffffffffffffffffffffffffff1673ffffffffffffffffffffffffffffffffffffffff16815260200190815260200160002060006101000a81548160ff0219169083151502179055506007600082815260200190815260200160002060040160008154809291906001019190505550600d8190806001815401808255809150509060018203906000526020600020016000909192909190915055506001600b60003373ffffffffffffffffffffffffffffffffffffffff1673ffffffffffffffffffffffffffffffffffffffff168152602001908152602001600020600083815260200190815260200160002060006101000a81548160ff021916908315150217905550807ffff3c900d938d21d0990d786e819f29b8d05c1ef587b462b939609625b684b1660405160405180910390a250565b600b6020528160005260406000206020528060005260406000206000915091509054906101000a900460ff1681565b600a60003373ffffffffffffffffffffffffffffffffffffffff1673ffffffffffffffffffffffffffffffffffffffff168152602001908152602001600020600082815260200190815260200160002060009054906101000a900460ff1615611185576040517f08c379a0000000000000000000000000000000000000000000000000000000008152600401808060200182810382526024815260200180611ee56024913960400191505060405180910390fd5b600b60003373ffffffffffffffffffffffffffffffffffffffff1673ffffffffffffffffffffffffffffffffffffffff168152602001908152602001600020600082815260200190815260200160002060009054906101000a900460ff1615611239576040517f08c379a0000000000000000000000000000000000000000000000000000000008152600401808060200182810382526024815260200180611ee56024913960400191505060405180910390fd5b60008111801561124b57506008548111155b61125457600080fd5b6001600660003373ffffffffffffffffffffffffffffffffffffffff1673ffffffffffffffffffffffffffffffffffffffff16815260200190815260200160002060006101000a81548160ff0219169083151502179055506007600082815260200190815260200160002060030160008154809291906001019190505550600960003373ffffffffffffffffffffffffffffffffffffffff1673ffffffffffffffffffffffffffffffffffffffff168152602001908152602001600020819080600181540180825580915050906001820390600052602060002001600090919290919091505550600c819080600181540180825580915050906001820390600052602060002001600090919290919091505550600560008281526020019081526020016000203390806001815401808255809150509060018203906000526020600020016000909192909190916101000a81548173ffffffffffffffffffffffffffffffffffffffff021916908373ffffffffffffffffffffffffffffffffffffffff160217905550506001600a60003373ffffffffffffffffffffffffffffffffffffffff1673ffffffffffffffffffffffffffffffffffffffff168152602001908152602001600020600083815260200190815260200160002060006101000a81548160ff021916908315150217905550807ffff3c900d938d21d0990d786e819f29b8d05c1ef587b462b939609625b684b1660405160405180910390a250565b6000600254905090565b6008600081548092919060010191905055506040518060a0016040528060085481526020018381526020018281526020016000815260200160008152506007600060085481526020019081526020016000206000820151816000015560208201518160010190805190602001906114f9929190611dcc565b506040820151816002019080519060200190611516929190611dcc565b5060608201518160030155608082015181600401559050505050565b60085481565b6007602052806000526040600020600091509050806000015490806001018054600181600116156101000203166002900480601f0160208091040260200160405190810160405280929190818152602001828054600181600116156101000203166002900480156115ea5780601f106115bf576101008083540402835291602001916115ea565b820191906000526020600020905b8154815290600101906020018083116115cd57829003601f168201915b505050505090806002018054600181600116156101000203166002900480601f0160208091040260200160405190810160405280929190818152602001828054600181600116156101000203166002900480156116885780601f1061165d57610100808354040283529160200191611688565b820191906000526020600020905b81548152906001019060200180831161166b57829003601f168201915b5050505050908060030154908060040154905085565b600a6020528160005260406000206020528060005260406000206000915091509054906101000a900460ff1681565b6003602052806000526040600020600091509050806000015490806001018054600181600116156101000203166002900480601f01602080910402602001604051908101604052809291908181526020018280546001816001161561010002031660029004801561177f5780601f106117545761010080835404028352916020019161177f565b820191906000526020600020905b81548152906001019060200180831161176257829003601f168201915b505050505090806002018054600181600116156101000203166002900480601f01602080910402602001604051908101604052809291908181526020018280546001816001161561010002031660029004801561181d5780601f106117f25761010080835404028352916020019161181d565b820191906000526020600020905b81548152906001019060200180831161180057829003601f168201915b505050505090806003018054600181600116156101000203166002900480601f0160208091040260200160405190810160405280929190818152602001828054600181600116156101000203166002900480156118bb5780601f10611890576101008083540402835291602001916118bb565b820191906000526020600020905b81548152906001019060200180831161189e57829003601f168201915b505050505090806004018054600181600116156101000203166002900480601f0160208091040260200160405190810160405280929190818152602001828054600181600116156101000203166002900480156119595780601f1061192e57610100808354040283529160200191611959565b820191906000526020600020905b81548152906001019060200180831161193c57829003601f168201915b5050505050905085565b6000600460003373ffffffffffffffffffffffffffffffffffffffff1673ffffffffffffffffffffffffffffffffffffffff16815260200190815260200160002060009054906101000a900460ff16156119bc57600080fd5b6002600081548092919060010191905055506040518060a00160405280600254815260200186815260200185815260200184815260200183815250600360006002548152602001908152602001600020600082015181600001556020820151816001019080519060200190611a32929190611dcc565b506040820151816002019080519060200190611a4f929190611dcc565b506060820151816003019080519060200190611a6c929190611dcc565b506080820151816004019080519060200190611a89929190611dcc565b509050506001600460003373ffffffffffffffffffffffffffffffffffffffff1673ffffffffffffffffffffffffffffffffffffffff16815260200190815260200160002060006101000a81548160ff021916908315150217905550600c6000806002548152602001908152602001600020908054611b09929190611e4c565b50600d600160006002548152602001908152602001600020908054611b2f929190611e4c565b50600c6000611b3e9190611e9e565b6002549050949350505050565b6060600080838152602001908152602001600020805480602002602001604051908101604052809291908181526020018280548015611ba957602002820191906000526020600020905b815481526020019060010190808311611b95575b50505050509050919050565b60025481565b60096020528160005260406000208181548110611bd457fe5b90600052602060002001600091509150505481565b606060056000838152602001908152602001600020805480602002602001604051908101604052809291908181526020018280548015611c7e57602002820191906000526020600020905b8160009054906101000a900473ffffffffffffffffffffffffffffffffffffffff1673ffffffffffffffffffffffffffffffffffffffff1681526020019060010190808311611c34575b50505050509050919050565b60006020528160005260406000208181548110611ca357fe5b90600052602060002001600091509150505481565b60066020528060005260406000206000915054906101000a900460ff1681565b600c6000611ce69190611e9e565b565b60046020528060005260406000206000915054906101000a900460ff1681565b60016020528160005260406000208181548110611d2157fe5b90600052602060002001600091509150505481565b6000600854905090565b606060016000838152602001908152602001600020805480602002602001604051908101604052809291908181526020018280548015611d9f57602002820191906000526020600020905b815481526020019060010190808311611d8b575b50505050509050919050565b600d8181548110611db857fe5b906000526020600020016000915090505481565b828054600181600116156101000203166002900490600052602060002090601f016020900481019282601f10611e0d57805160ff1916838001178555611e3b565b82800160010185558215611e3b579182015b82811115611e3a578251825591602001919060010190611e1f565b5b509050611e489190611ebf565b5090565b828054828255906000526020600020908101928215611e8d5760005260206000209182015b82811115611e8c578254825591600101919060010190611e71565b5b509050611e9a9190611ebf565b5090565b5080546000825590600052602060002090810190611ebc9190611ebf565b50565b611ee191905b80821115611edd576000816000905550600101611ec5565b5090565b9056fe596f7520616c726561647920766f74656420666f72207468697320646573636973696f6ea265627a7a72315820de64a2adf051f2f43b13f9802a51cf427f209541fefdf99f5ab6e2f0e6b02cfc64736f6c63430005100032",
  "source": "pragma solidity >=0.4.22 <0.9.0;\r\n\r\ncontract Election {\r\n\r\n  struct candidate { //Regle\r\n    uint id;\r\n    string name;\r\n    string descriptif;\r\n    uint voteCountPour;\r\n    uint voteCountContre;\r\n  }\r\n  struct personne {\r\n    uint id;\r\n    string nom;\r\n    string prenom;\r\n    string sexe;\r\n    string fonction;\r\n    //candidate[] voterPourvar;\r\n    //uint[] deCisionpour;\r\n  }\r\n\r\n    mapping(uint=>uint[]) public deCisionpour;\r\n    mapping(uint=>uint[]) public deCisioncontre;\r\n\r\nfunction getdeCisionpour(uint inte) public view returns(uint[] memory ){\r\n  return deCisionpour[inte];\r\n}\r\n\r\nfunction getdeCisioncontre(uint inte) public view returns(uint[] memory ){\r\n  return deCisioncontre[inte];\r\n}\r\n  //Person VAR\r\n  uint public personCount;\r\n\r\n  mapping(uint=>personne) public personnes;\r\n  mapping(address => bool) public Inscrits;\r\n\r\n\r\n  //*************END PERSON VAR\r\n\r\n\r\n  //************************candidate VAR\r\n\r\n//  mapping (uint=>string)mapping entier string = name de la regle\r\n  mapping(uint=>address[]) votsPour;\r\n\r\n  mapping(address => bool) public voters;\r\n\r\n  mapping(uint=>candidate) public candidates;\r\n  uint public candidatesCount; //Nbre de lois par la suite\r\n\r\n  mapping(address =>uint[] ) public voterFor;\r\n\r\n  mapping(address => mapping(uint256 => bool)) public votedPour;\r\n      //relation between account and candidate\r\n  mapping(address => mapping(uint256 => bool)) public votedContre;\r\n\r\n  //*************END PERSON VAR\r\n\r\n  //uint[] public tabIdCandidat = new uint[](7);\r\n  uint[] public tabIdCandidat;\r\n  uint[] public tabIdCandidatContre;\r\n\r\n\r\n  //candidate[] tmpCandidate;\r\n\r\n  // *************PERSON FUNCTION\r\n  function getCandidatesCount() public returns(uint){\r\n    return candidatesCount;\r\n  }\r\n\r\n  function InitializeTableau() public {\r\n    delete tabIdCandidat;\r\n  }\r\n\r\n  event personEvent (\r\n      uint indexed _candidateId\r\n  );\r\n\r\n  function getPersonCount() public returns(uint){\r\n    return personCount;\r\n  }\r\n\r\n  function addPerson(string memory _nom,string memory _prenom, string memory _sexe, string memory _fonction) public returns (uint){\r\n\r\n    require(!Inscrits[msg.sender]);\r\n    personCount++;\r\n    personnes[personCount] = personne(personCount, _nom,_prenom,_sexe,_fonction);//,tabIdCandidat\r\n    Inscrits[msg.sender]=true;\r\n    deCisionpour[personCount]=tabIdCandidat;\r\n    deCisioncontre[personCount] = tabIdCandidatContre;\r\n    delete tabIdCandidat;\r\n    //delete tabIdCandidatContre;\r\n    return personCount;\r\n\r\n  }\r\n\r\n  //******* END FUNCTION PERSON\r\n\r\n\r\n  //************************candidate FUNCTION\r\n  // voted event\r\n  event votedEvent (\r\n      uint indexed _candidateId\r\n  );\r\n\r\n  function addCandidate(string memory _name,string memory _descriptif) public {\r\n\r\n      candidatesCount++;\r\n      candidates[candidatesCount] = candidate(candidatesCount,_name,_descriptif,0,0);\r\n  }\r\n\r\n  function getVoters(uint _id) public view returns (address[] memory) {\r\n        //require(msg.sender==_adress );\r\n        return votsPour[_id];\r\n    }\r\n\r\n//on reecup le titre du candidat et on le push dans un tableau\r\n  function votePour (uint _candidateId) public { //returns (bool) {\r\n\r\n    require(!votedPour[msg.sender][_candidateId], \"You already voted for this descision\");\r\n    require(!votedContre[msg.sender][_candidateId], \"You already voted for this descision\");\r\n\r\n    require(_candidateId > 0 && _candidateId <= candidatesCount);\r\n    // record that voter has voted\r\n    voters[msg.sender] = true;\r\n\r\n    // update candidate vote Count\r\n    candidates[_candidateId].voteCountPour ++;\r\n\r\n    voterFor[msg.sender].push(_candidateId);\r\n\r\n    tabIdCandidat.push(_candidateId);\r\n\r\n    votsPour[_candidateId].push(msg.sender);\r\n\r\n    votedPour[msg.sender][_candidateId] = true;\r\n    // trigger voted event\r\n    emit votedEvent(_candidateId);\r\n    //return a_voter;\r\n  }\r\n\r\n  function voteContre (uint _candidateId) public {\r\n    // require that they haven't voted before\r\n    //require(!voters[msg.sender]);\r\n    require(!votedPour[msg.sender][_candidateId], \"You already voted for this descision\");\r\n    require(!votedContre[msg.sender][_candidateId], \"You already voted for this descision\");\r\n    // require a valid candidate\r\n    require(_candidateId > 0 && _candidateId <= candidatesCount);\r\n    // record that voter has voted\r\n    voters[msg.sender] = true;\r\n\r\n    // update candidate vote Count\r\n    candidates[_candidateId].voteCountContre ++;\r\n    //votedContre[msg.sender] = _candidateId;\r\n    // trigger voted event\r\n\r\n    tabIdCandidatContre.push(_candidateId);\r\n\r\n    votedContre[msg.sender][_candidateId] = true;\r\n    emit votedEvent(_candidateId);\r\n  }\r\n}",
  "sourcePath": "D:\\University\\Blockchain Projects\\Voting\\contracts\\Election.sol",
  "compiler": {
    "name": "solc",
    "version": "0.5.16+commit.9c3226ce.Emscripten.clang"
  },
  "schemaVersion": "3.4.3",
  "updatedAt": "2021-12-29T10:11:42.643Z",
  "networkType": "ethereum",
  "devdoc": {
    "methods": {}
  },
  "userdoc": {
    "methods": {}
  }
}