{
  "contractName": "newElection",
  "abi": [
    {
      "inputs": [],
      "payable": false,
      "stateMutability": "nonpayable",
      "type": "constructor"
    },
    {
      "anonymous": false,
      "inputs": [
        {
          "indexed": true,
          "internalType": "uint256",
          "name": "_questionId",
          "type": "uint256"
        }
      ],
      "name": "votedEvent",
      "type": "event"
    },
    {
      "constant": true,
      "inputs": [
        {
          "internalType": "uint256",
          "name": "",
          "type": "uint256"
        }
      ],
      "name": "questions",
      "outputs": [
        {
          "internalType": "uint256",
          "name": "id",
          "type": "uint256"
        },
        {
          "internalType": "string",
          "name": "title",
          "type": "string"
        },
        {
          "internalType": "string",
          "name": "name",
          "type": "string"
        },
        {
          "internalType": "uint256",
          "name": "voteCount",
          "type": "uint256"
        }
      ],
      "payable": false,
      "stateMutability": "view",
      "type": "function"
    },
    {
      "constant": true,
      "inputs": [],
      "name": "questionsCount",
      "outputs": [
        {
          "internalType": "uint256",
          "name": "",
          "type": "uint256"
        }
      ],
      "payable": false,
      "stateMutability": "view",
      "type": "function"
    },
    {
      "constant": true,
      "inputs": [
        {
          "internalType": "address",
          "name": "",
          "type": "address"
        }
      ],
      "name": "voters",
      "outputs": [
        {
          "internalType": "bool",
          "name": "",
          "type": "bool"
        }
      ],
      "payable": false,
      "stateMutability": "view",
      "type": "function"
    },
    {
      "constant": false,
      "inputs": [
        {
          "internalType": "string",
          "name": "_title",
          "type": "string"
        },
        {
          "internalType": "string",
          "name": "_name",
          "type": "string"
        }
      ],
      "name": "addNewElection",
      "outputs": [],
      "payable": false,
      "stateMutability": "nonpayable",
      "type": "function"
    },
    {
      "constant": false,
      "inputs": [
        {
          "internalType": "uint256",
          "name": "_questionId",
          "type": "uint256"
        }
      ],
      "name": "vote",
      "outputs": [],
      "payable": false,
      "stateMutability": "nonpayable",
      "type": "function"
    }
  ],
  "bytecode": "0x608060405234801561001057600080fd5b50610794806100206000396000f3fe608060405234801561001057600080fd5b50600436106100575760003560e01c80630121b93f1461005c57806331b1b9781461008a5780637c1fb3c3146101ab57806389090a7c146101c9578063a3ec138d1461031b575b600080fd5b6100886004803603602081101561007257600080fd5b8101908080359060200190929190505050610377565b005b6100b6600480360360208110156100a057600080fd5b8101908080359060200190929190505050610495565b604051808581526020018060200180602001848152602001838103835286818151815260200191508051906020019080838360005b838110156101065780820151818401526020810190506100eb565b50505050905090810190601f1680156101335780820380516001836020036101000a031916815260200191505b50838103825285818151815260200191508051906020019080838360005b8381101561016c578082015181840152602081019050610151565b50505050905090810190601f1680156101995780820380516001836020036101000a031916815260200191505b50965050505050505060405180910390f35b6101b36105f5565b6040518082815260200191505060405180910390f35b610319600480360360408110156101df57600080fd5b81019080803590602001906401000000008111156101fc57600080fd5b82018360208201111561020e57600080fd5b8035906020019184600183028401116401000000008311171561023057600080fd5b91908080601f016020809104026020016040519081016040528093929190818152602001838380828437600081840152601f19601f8201169050808301925050505050505091929192908035906020019064010000000081111561029357600080fd5b8201836020820111156102a557600080fd5b803590602001918460018302840111640100000000831117156102c757600080fd5b91908080601f016020809104026020016040519081016040528093929190818152602001838380828437600081840152601f19601f8201169050808301925050505050505091929192905050506105fb565b005b61035d6004803603602081101561033157600080fd5b81019080803573ffffffffffffffffffffffffffffffffffffffff16906020019092919050505061069a565b604051808215151515815260200191505060405180910390f35b600160003373ffffffffffffffffffffffffffffffffffffffff1673ffffffffffffffffffffffffffffffffffffffff16815260200190815260200160002060009054906101000a900460ff16156103ce57600080fd5b6000811180156103e057506002548111155b6103e957600080fd5b60018060003373ffffffffffffffffffffffffffffffffffffffff1673ffffffffffffffffffffffffffffffffffffffff16815260200190815260200160002060006101000a81548160ff02191690831515021790555060008082815260200190815260200160002060030160008154809291906001019190505550807ffff3c900d938d21d0990d786e819f29b8d05c1ef587b462b939609625b684b1660405160405180910390a250565b6000602052806000526040600020600091509050806000015490806001018054600181600116156101000203166002900480601f0160208091040260200160405190810160405280929190818152602001828054600181600116156101000203166002900480156105475780601f1061051c57610100808354040283529160200191610547565b820191906000526020600020905b81548152906001019060200180831161052a57829003601f168201915b505050505090806002018054600181600116156101000203166002900480601f0160208091040260200160405190810160405280929190818152602001828054600181600116156101000203166002900480156105e55780601f106105ba576101008083540402835291602001916105e5565b820191906000526020600020905b8154815290600101906020018083116105c857829003601f168201915b5050505050908060030154905084565b60025481565b600260008154809291906001019190505550604051806080016040528060025481526020018381526020018281526020016000815250600080600254815260200190815260200160002060008201518160000155602082015181600101908051906020019061066b9291906106ba565b5060408201518160020190805190602001906106889291906106ba565b50606082015181600301559050505050565b60016020528060005260406000206000915054906101000a900460ff1681565b828054600181600116156101000203166002900490600052602060002090601f016020900481019282601f106106fb57805160ff1916838001178555610729565b82800160010185558215610729579182015b8281111561072857825182559160200191906001019061070d565b5b509050610736919061073a565b5090565b61075c91905b80821115610758576000816000905550600101610740565b5090565b9056fea265627a7a7231582074f430e302c3f634e9049cd29dafb1d5f96be11cfb0b49268d7edcc6fb7d87ab64736f6c63430005100032",
  "source": "pragma solidity >=0.4.22 <0.9.0;\r\n\r\n\r\ncontract newElection {\r\n    struct Question {\r\n        uint id;\r\n        string title;\r\n        string name;\r\n        uint voteCount;\r\n    }\r\n\r\n    // Read/write questions\r\n    mapping(uint => Question) public questions;\r\n    // Store accounts that have voted\r\n    mapping(address => bool) public voters;\r\n\r\n    // Store Questions Count\r\n    uint public questionsCount;\r\n\r\n    constructor() public{\r\n\r\n    }\r\n\r\n    event votedEvent (\r\n        uint indexed _questionId\r\n    );\r\n\r\n    function addNewElection (string memory _title, string memory _name) public {\r\n        questionsCount ++;\r\n        questions[questionsCount] = Question(questionsCount, _title, _name, 0);\r\n    }\r\n\r\n    function vote (uint _questionId) public {\r\n    // require that they haven't voted before\r\n    require(!voters[msg.sender]);\r\n\r\n    // require a valid candidate\r\n    require(_questionId > 0 && _questionId <= questionsCount);\r\n\r\n    // record that voter has voted\r\n    voters[msg.sender] = true;\r\n\r\n    // update candidate vote Count\r\n    questions[_questionId].voteCount ++;\r\n\r\n    // trigger voted event\r\n    emit votedEvent(_questionId);\r\n}\r\n\r\n}",
  "sourcePath": "D:\\University\\Blockchain Projects\\Voting\\contracts\\newElection.sol",
  "compiler": {
    "name": "solc",
    "version": "0.5.16+commit.9c3226ce.Emscripten.clang"
  },
  "schemaVersion": "3.4.3",
  "updatedAt": "2021-12-29T10:11:45.127Z",
  "networkType": "ethereum",
  "devdoc": {
    "methods": {}
  },
  "userdoc": {
    "methods": {}
  }
}